{
  "_format": "hh-sol-artifact-1",
  "contractName": "buyMeCoffee",
  "sourceName": "contracts/buyMeCoffee.sol",
  "abi": [
    {
      "inputs": [],
      "stateMutability": "payable",
      "type": "constructor"
    },
    {
      "anonymous": false,
      "inputs": [
        {
          "indexed": true,
          "internalType": "address",
          "name": "from",
          "type": "address"
        },
        {
          "indexed": false,
          "internalType": "uint256",
          "name": "timestamp",
          "type": "uint256"
        },
        {
          "indexed": false,
          "internalType": "string",
          "name": "name",
          "type": "string"
        },
        {
          "indexed": false,
          "internalType": "string",
          "name": "message",
          "type": "string"
        }
      ],
      "name": "NewMemo",
      "type": "event"
    },
    {
      "inputs": [
        {
          "internalType": "string",
          "name": "_name",
          "type": "string"
        },
        {
          "internalType": "string",
          "name": "_message",
          "type": "string"
        }
      ],
      "name": "buyCoffee",
      "outputs": [],
      "stateMutability": "payable",
      "type": "function"
    },
    {
      "inputs": [],
      "name": "getMemos",
      "outputs": [
        {
          "components": [
            {
              "internalType": "address",
              "name": "from",
              "type": "address"
            },
            {
              "internalType": "uint256",
              "name": "timestamp",
              "type": "uint256"
            },
            {
              "internalType": "string",
              "name": "name",
              "type": "string"
            },
            {
              "internalType": "string",
              "name": "message",
              "type": "string"
            }
          ],
          "internalType": "struct buyMeCoffee.Memo[]",
          "name": "",
          "type": "tuple[]"
        }
      ],
      "stateMutability": "view",
      "type": "function"
    },
    {
      "inputs": [
        {
          "internalType": "uint256",
          "name": "",
          "type": "uint256"
        }
      ],
      "name": "memos",
      "outputs": [
        {
          "internalType": "address",
          "name": "from",
          "type": "address"
        },
        {
          "internalType": "uint256",
          "name": "timestamp",
          "type": "uint256"
        },
        {
          "internalType": "string",
          "name": "name",
          "type": "string"
        },
        {
          "internalType": "string",
          "name": "message",
          "type": "string"
        }
      ],
      "stateMutability": "view",
      "type": "function"
    },
    {
      "inputs": [],
      "name": "withDrawnTips",
      "outputs": [],
      "stateMutability": "nonpayable",
      "type": "function"
    }
  ],
  "bytecode": "0x608060405233600160006101000a81548173ffffffffffffffffffffffffffffffffffffffff021916908373ffffffffffffffffffffffffffffffffffffffff160217905550610f09806100546000396000f3fe60806040526004361061003f5760003560e01c8063204206e11461004457806330e7ccbb14610060578063865c517214610077578063e8dfdf04146100a2575b600080fd5b61005e6004803603810190610059919061076b565b6100e2565b005b34801561006c57600080fd5b5061007561025c565b005b34801561008357600080fd5b5061008c6102be565b60405161009991906109e8565b60405180910390f35b3480156100ae57600080fd5b506100c960048036038101906100c49190610a36565b6104a1565b6040516100d99493929190610acb565b60405180910390f35b60003411610125576040517f08c379a000000000000000000000000000000000000000000000000000000000815260040161011c90610b90565b60405180910390fd5b600060405180608001604052803373ffffffffffffffffffffffffffffffffffffffff16815260200142815260200184815260200183815250908060018154018082558091505060019003906000526020600020906004020160009091909190915060008201518160000160006101000a81548173ffffffffffffffffffffffffffffffffffffffff021916908373ffffffffffffffffffffffffffffffffffffffff1602179055506020820151816001015560408201518160020190816101ed9190610dbc565b5060608201518160030190816102039190610dbc565b5050503373ffffffffffffffffffffffffffffffffffffffff167fc56140e05f516509ae28110e0f72e17558a7561630dad2647c3ae87d986e365c42848460405161025093929190610e8e565b60405180910390a25050565b600160009054906101000a900473ffffffffffffffffffffffffffffffffffffffff1673ffffffffffffffffffffffffffffffffffffffff166108fc479081150290604051600060405180830381858888f193505050506102bc57600080fd5b565b60606000805480602002602001604051908101604052809291908181526020016000905b8282101561049857838290600052602060002090600402016040518060800160405290816000820160009054906101000a900473ffffffffffffffffffffffffffffffffffffffff1673ffffffffffffffffffffffffffffffffffffffff1673ffffffffffffffffffffffffffffffffffffffff1681526020016001820154815260200160028201805461037590610bdf565b80601f01602080910402602001604051908101604052809291908181526020018280546103a190610bdf565b80156103ee5780601f106103c3576101008083540402835291602001916103ee565b820191906000526020600020905b8154815290600101906020018083116103d157829003601f168201915b5050505050815260200160038201805461040790610bdf565b80601f016020809104026020016040519081016040528092919081815260200182805461043390610bdf565b80156104805780601f1061045557610100808354040283529160200191610480565b820191906000526020600020905b81548152906001019060200180831161046357829003601f168201915b505050505081525050815260200190600101906102e2565b50505050905090565b600081815481106104b157600080fd5b90600052602060002090600402016000915090508060000160009054906101000a900473ffffffffffffffffffffffffffffffffffffffff169080600101549080600201805461050090610bdf565b80601f016020809104026020016040519081016040528092919081815260200182805461052c90610bdf565b80156105795780601f1061054e57610100808354040283529160200191610579565b820191906000526020600020905b81548152906001019060200180831161055c57829003601f168201915b50505050509080600301805461058e90610bdf565b80601f01602080910402602001604051908101604052809291908181526020018280546105ba90610bdf565b80156106075780601f106105dc57610100808354040283529160200191610607565b820191906000526020600020905b8154815290600101906020018083116105ea57829003601f168201915b5050505050905084565b6000604051905090565b600080fd5b600080fd5b600080fd5b600080fd5b6000601f19601f8301169050919050565b7f4e487b7100000000000000000000000000000000000000000000000000000000600052604160045260246000fd5b6106788261062f565b810181811067ffffffffffffffff8211171561069757610696610640565b5b80604052505050565b60006106aa610611565b90506106b6828261066f565b919050565b600067ffffffffffffffff8211156106d6576106d5610640565b5b6106df8261062f565b9050602081019050919050565b82818337600083830152505050565b600061070e610709846106bb565b6106a0565b90508281526020810184848401111561072a5761072961062a565b5b6107358482856106ec565b509392505050565b600082601f83011261075257610751610625565b5b81356107628482602086016106fb565b91505092915050565b600080604083850312156107825761078161061b565b5b600083013567ffffffffffffffff8111156107a05761079f610620565b5b6107ac8582860161073d565b925050602083013567ffffffffffffffff8111156107cd576107cc610620565b5b6107d98582860161073d565b9150509250929050565b600081519050919050565b600082825260208201905092915050565b6000819050602082019050919050565b600073ffffffffffffffffffffffffffffffffffffffff82169050919050565b600061083a8261080f565b9050919050565b61084a8161082f565b82525050565b6000819050919050565b61086381610850565b82525050565b600081519050919050565b600082825260208201905092915050565b60005b838110156108a3578082015181840152602081019050610888565b60008484015250505050565b60006108ba82610869565b6108c48185610874565b93506108d4818560208601610885565b6108dd8161062f565b840191505092915050565b60006080830160008301516109006000860182610841565b506020830151610913602086018261085a565b506040830151848203604086015261092b82826108af565b9150506060830151848203606086015261094582826108af565b9150508091505092915050565b600061095e83836108e8565b905092915050565b6000602082019050919050565b600061097e826107e3565b61098881856107ee565b93508360208202850161099a856107ff565b8060005b858110156109d657848403895281516109b78582610952565b94506109c283610966565b925060208a0199505060018101905061099e565b50829750879550505050505092915050565b60006020820190508181036000830152610a028184610973565b905092915050565b610a1381610850565b8114610a1e57600080fd5b50565b600081359050610a3081610a0a565b92915050565b600060208284031215610a4c57610a4b61061b565b5b6000610a5a84828501610a21565b91505092915050565b610a6c8161082f565b82525050565b610a7b81610850565b82525050565b600082825260208201905092915050565b6000610a9d82610869565b610aa78185610a81565b9350610ab7818560208601610885565b610ac08161062f565b840191505092915050565b6000608082019050610ae06000830187610a63565b610aed6020830186610a72565b8181036040830152610aff8185610a92565b90508181036060830152610b138184610a92565b905095945050505050565b7f796f75206b65657020796f7572206d6f6e6579212c204920646f6e2774206e6560008201527f6564206974000000000000000000000000000000000000000000000000000000602082015250565b6000610b7a602583610a81565b9150610b8582610b1e565b604082019050919050565b60006020820190508181036000830152610ba981610b6d565b9050919050565b7f4e487b7100000000000000000000000000000000000000000000000000000000600052602260045260246000fd5b60006002820490506001821680610bf757607f821691505b602082108103610c0a57610c09610bb0565b5b50919050565b60008190508160005260206000209050919050565b60006020601f8301049050919050565b600082821b905092915050565b600060088302610c727fffffffffffffffffffffffffffffffffffffffffffffffffffffffffffffffff82610c35565b610c7c8683610c35565b95508019841693508086168417925050509392505050565b6000819050919050565b6000610cb9610cb4610caf84610850565b610c94565b610850565b9050919050565b6000819050919050565b610cd383610c9e565b610ce7610cdf82610cc0565b848454610c42565b825550505050565b600090565b610cfc610cef565b610d07818484610cca565b505050565b5b81811015610d2b57610d20600082610cf4565b600181019050610d0d565b5050565b601f821115610d7057610d4181610c10565b610d4a84610c25565b81016020851015610d59578190505b610d6d610d6585610c25565b830182610d0c565b50505b505050565b600082821c905092915050565b6000610d9360001984600802610d75565b1980831691505092915050565b6000610dac8383610d82565b9150826002028217905092915050565b610dc582610869565b67ffffffffffffffff811115610dde57610ddd610640565b5b610de88254610bdf565b610df3828285610d2f565b600060209050601f831160018114610e265760008415610e14578287015190505b610e1e8582610da0565b865550610e86565b601f198416610e3486610c10565b60005b82811015610e5c57848901518255600182019150602085019450602081019050610e37565b86831015610e795784890151610e75601f891682610d82565b8355505b6001600288020188555050505b505050505050565b6000606082019050610ea36000830186610a72565b8181036020830152610eb58185610a92565b90508181036040830152610ec98184610a92565b905094935050505056fea2646970667358221220ab4715fc7b82be74a9205924dfef9f3e6efdaaa9a8c39ff7b6e0937c7fff8e0064736f6c63430008130033",
  "linkReferences": {},
  "deployedLinkReferences": {}
}